{
  "_format": "hh-sol-artifact-1",
  "contractName": "EnhancedLoyaltyProgram",
  "sourceName": "contracts/EnhancedLoyaltyProgram.sol",
  "abi": [
    {
      "inputs": [
        {
          "internalType": "address",
          "name": "initialOwner",
          "type": "address"
        },
        {
          "internalType": "string",
          "name": "name",
          "type": "string"
        },
        {
          "internalType": "string",
          "name": "symbol",
          "type": "string"
        },
        {
          "internalType": "uint256",
          "name": "_expirationPeriod",
          "type": "uint256"
        },
        {
          "internalType": "uint256",
          "name": "_maxRedeemablePoints",
          "type": "uint256"
        },
        {
          "internalType": "uint256",
          "name": "_pointsToEthRate",
          "type": "uint256"
        }
      ],
      "stateMutability": "nonpayable",
      "type": "constructor"
    },
    {
      "inputs": [
        {
          "internalType": "address",
          "name": "spender",
          "type": "address"
        },
        {
          "internalType": "uint256",
          "name": "allowance",
          "type": "uint256"
        },
        {
          "internalType": "uint256",
          "name": "needed",
          "type": "uint256"
        }
      ],
      "name": "ERC20InsufficientAllowance",
      "type": "error"
    },
    {
      "inputs": [
        {
          "internalType": "address",
          "name": "sender",
          "type": "address"
        },
        {
          "internalType": "uint256",
          "name": "balance",
          "type": "uint256"
        },
        {
          "internalType": "uint256",
          "name": "needed",
          "type": "uint256"
        }
      ],
      "name": "ERC20InsufficientBalance",
      "type": "error"
    },
    {
      "inputs": [
        {
          "internalType": "address",
          "name": "approver",
          "type": "address"
        }
      ],
      "name": "ERC20InvalidApprover",
      "type": "error"
    },
    {
      "inputs": [
        {
          "internalType": "address",
          "name": "receiver",
          "type": "address"
        }
      ],
      "name": "ERC20InvalidReceiver",
      "type": "error"
    },
    {
      "inputs": [
        {
          "internalType": "address",
          "name": "sender",
          "type": "address"
        }
      ],
      "name": "ERC20InvalidSender",
      "type": "error"
    },
    {
      "inputs": [
        {
          "internalType": "address",
          "name": "spender",
          "type": "address"
        }
      ],
      "name": "ERC20InvalidSpender",
      "type": "error"
    },
    {
      "inputs": [
        {
          "internalType": "address",
          "name": "owner",
          "type": "address"
        }
      ],
      "name": "OwnableInvalidOwner",
      "type": "error"
    },
    {
      "inputs": [
        {
          "internalType": "address",
          "name": "account",
          "type": "address"
        }
      ],
      "name": "OwnableUnauthorizedAccount",
      "type": "error"
    },
    {
      "inputs": [],
      "name": "ReentrancyGuardReentrantCall",
      "type": "error"
    },
    {
      "anonymous": false,
      "inputs": [
        {
          "indexed": true,
          "internalType": "address",
          "name": "owner",
          "type": "address"
        },
        {
          "indexed": true,
          "internalType": "address",
          "name": "spender",
          "type": "address"
        },
        {
          "indexed": false,
          "internalType": "uint256",
          "name": "value",
          "type": "uint256"
        }
      ],
      "name": "Approval",
      "type": "event"
    },
    {
      "anonymous": false,
      "inputs": [
        {
          "indexed": true,
          "internalType": "address",
          "name": "previousOwner",
          "type": "address"
        },
        {
          "indexed": true,
          "internalType": "address",
          "name": "newOwner",
          "type": "address"
        }
      ],
      "name": "OwnershipTransferred",
      "type": "event"
    },
    {
      "anonymous": false,
      "inputs": [
        {
          "indexed": true,
          "internalType": "address",
          "name": "user",
          "type": "address"
        },
        {
          "indexed": false,
          "internalType": "uint256",
          "name": "amount",
          "type": "uint256"
        }
      ],
      "name": "PointsExpired",
      "type": "event"
    },
    {
      "anonymous": false,
      "inputs": [
        {
          "indexed": true,
          "internalType": "address",
          "name": "user",
          "type": "address"
        },
        {
          "indexed": false,
          "internalType": "uint256",
          "name": "amount",
          "type": "uint256"
        }
      ],
      "name": "PointsIssued",
      "type": "event"
    },
    {
      "anonymous": false,
      "inputs": [
        {
          "indexed": true,
          "internalType": "address",
          "name": "user",
          "type": "address"
        },
        {
          "indexed": false,
          "internalType": "uint256",
          "name": "amount",
          "type": "uint256"
        }
      ],
      "name": "PointsRedeemed",
      "type": "event"
    },
    {
      "anonymous": false,
      "inputs": [
        {
          "indexed": true,
          "internalType": "address",
          "name": "user",
          "type": "address"
        },
        {
          "indexed": true,
          "internalType": "address",
          "name": "store",
          "type": "address"
        },
        {
          "indexed": false,
          "internalType": "uint256",
          "name": "amount",
          "type": "uint256"
        },
        {
          "indexed": false,
          "internalType": "uint256",
          "name": "pointsEarned",
          "type": "uint256"
        }
      ],
      "name": "PurchaseCompleted",
      "type": "event"
    },
    {
      "anonymous": false,
      "inputs": [
        {
          "indexed": true,
          "internalType": "address",
          "name": "storeAddress",
          "type": "address"
        },
        {
          "indexed": false,
          "internalType": "string",
          "name": "name",
          "type": "string"
        }
      ],
      "name": "StoreRegistered",
      "type": "event"
    },
    {
      "anonymous": false,
      "inputs": [
        {
          "indexed": true,
          "internalType": "address",
          "name": "storeAddress",
          "type": "address"
        }
      ],
      "name": "StoreRemoved",
      "type": "event"
    },
    {
      "anonymous": false,
      "inputs": [
        {
          "indexed": true,
          "internalType": "address",
          "name": "from",
          "type": "address"
        },
        {
          "indexed": true,
          "internalType": "address",
          "name": "to",
          "type": "address"
        },
        {
          "indexed": false,
          "internalType": "uint256",
          "name": "value",
          "type": "uint256"
        }
      ],
      "name": "Transfer",
      "type": "event"
    },
    {
      "inputs": [
        {
          "internalType": "address",
          "name": "owner",
          "type": "address"
        },
        {
          "internalType": "address",
          "name": "spender",
          "type": "address"
        }
      ],
      "name": "allowance",
      "outputs": [
        {
          "internalType": "uint256",
          "name": "",
          "type": "uint256"
        }
      ],
      "stateMutability": "view",
      "type": "function"
    },
    {
      "inputs": [
        {
          "internalType": "address",
          "name": "spender",
          "type": "address"
        },
        {
          "internalType": "uint256",
          "name": "value",
          "type": "uint256"
        }
      ],
      "name": "approve",
      "outputs": [
        {
          "internalType": "bool",
          "name": "",
          "type": "bool"
        }
      ],
      "stateMutability": "nonpayable",
      "type": "function"
    },
    {
      "inputs": [
        {
          "internalType": "address",
          "name": "",
          "type": "address"
        }
      ],
      "name": "approvedPartners",
      "outputs": [
        {
          "internalType": "bool",
          "name": "",
          "type": "bool"
        }
      ],
      "stateMutability": "view",
      "type": "function"
    },
    {
      "inputs": [
        {
          "internalType": "address",
          "name": "",
          "type": "address"
        }
      ],
      "name": "approvedStores",
      "outputs": [
        {
          "internalType": "bool",
          "name": "",
          "type": "bool"
        }
      ],
      "stateMutability": "view",
      "type": "function"
    },
    {
      "inputs": [
        {
          "internalType": "address",
          "name": "account",
          "type": "address"
        }
      ],
      "name": "balanceOf",
      "outputs": [
        {
          "internalType": "uint256",
          "name": "",
          "type": "uint256"
        }
      ],
      "stateMutability": "view",
      "type": "function"
    },
    {
      "inputs": [
        {
          "internalType": "uint256",
          "name": "pointsAmount",
          "type": "uint256"
        }
      ],
      "name": "calculatePointsValue",
      "outputs": [
        {
          "internalType": "uint256",
          "name": "",
          "type": "uint256"
        }
      ],
      "stateMutability": "view",
      "type": "function"
    },
    {
      "inputs": [],
      "name": "decimals",
      "outputs": [
        {
          "internalType": "uint8",
          "name": "",
          "type": "uint8"
        }
      ],
      "stateMutability": "view",
      "type": "function"
    },
    {
      "inputs": [],
      "name": "expirationPeriod",
      "outputs": [
        {
          "internalType": "uint256",
          "name": "",
          "type": "uint256"
        }
      ],
      "stateMutability": "view",
      "type": "function"
    },
    {
      "inputs": [
        {
          "internalType": "address",
          "name": "user",
          "type": "address"
        }
      ],
      "name": "expirePoints",
      "outputs": [],
      "stateMutability": "nonpayable",
      "type": "function"
    },
    {
      "inputs": [
        {
          "internalType": "address",
          "name": "user",
          "type": "address"
        }
      ],
      "name": "getPointsBalance",
      "outputs": [
        {
          "internalType": "uint256",
          "name": "",
          "type": "uint256"
        }
      ],
      "stateMutability": "view",
      "type": "function"
    },
    {
      "inputs": [
        {
          "internalType": "address",
          "name": "user",
          "type": "address"
        }
      ],
      "name": "isExpired",
      "outputs": [
        {
          "internalType": "bool",
          "name": "",
          "type": "bool"
        }
      ],
      "stateMutability": "view",
      "type": "function"
    },
    {
      "inputs": [
        {
          "internalType": "address",
          "name": "to",
          "type": "address"
        },
        {
          "internalType": "uint256",
          "name": "amount",
          "type": "uint256"
        }
      ],
      "name": "issuePoints",
      "outputs": [],
      "stateMutability": "nonpayable",
      "type": "function"
    },
    {
      "inputs": [],
      "name": "maxRedeemablePoints",
      "outputs": [
        {
          "internalType": "uint256",
          "name": "",
          "type": "uint256"
        }
      ],
      "stateMutability": "view",
      "type": "function"
    },
    {
      "inputs": [],
      "name": "name",
      "outputs": [
        {
          "internalType": "string",
          "name": "",
          "type": "string"
        }
      ],
      "stateMutability": "view",
      "type": "function"
    },
    {
      "inputs": [],
      "name": "owner",
      "outputs": [
        {
          "internalType": "address",
          "name": "",
          "type": "address"
        }
      ],
      "stateMutability": "view",
      "type": "function"
    },
    {
      "inputs": [],
      "name": "pointsToEthRate",
      "outputs": [
        {
          "internalType": "uint256",
          "name": "",
          "type": "uint256"
        }
      ],
      "stateMutability": "view",
      "type": "function"
    },
    {
      "inputs": [
        {
          "internalType": "address",
          "name": "customer",
          "type": "address"
        },
        {
          "internalType": "uint256",
          "name": "purchaseAmount",
          "type": "uint256"
        }
      ],
      "name": "recordPurchase",
      "outputs": [],
      "stateMutability": "nonpayable",
      "type": "function"
    },
    {
      "inputs": [
        {
          "internalType": "address",
          "name": "from",
          "type": "address"
        },
        {
          "internalType": "uint256",
          "name": "amount",
          "type": "uint256"
        }
      ],
      "name": "redeemPoints",
      "outputs": [],
      "stateMutability": "nonpayable",
      "type": "function"
    },
    {
      "inputs": [
        {
          "internalType": "address",
          "name": "from",
          "type": "address"
        },
        {
          "internalType": "uint256",
          "name": "amount",
          "type": "uint256"
        },
        {
          "internalType": "address",
          "name": "partner",
          "type": "address"
        }
      ],
      "name": "redeemWithPartner",
      "outputs": [],
      "stateMutability": "nonpayable",
      "type": "function"
    },
    {
      "inputs": [
        {
          "internalType": "address",
          "name": "storeAddress",
          "type": "address"
        },
        {
          "internalType": "string",
          "name": "storeName",
          "type": "string"
        },
        {
          "internalType": "uint256",
          "name": "storePointsRate",
          "type": "uint256"
        }
      ],
      "name": "registerStore",
      "outputs": [],
      "stateMutability": "nonpayable",
      "type": "function"
    },
    {
      "inputs": [
        {
          "internalType": "address",
          "name": "storeAddress",
          "type": "address"
        }
      ],
      "name": "removeStore",
      "outputs": [],
      "stateMutability": "nonpayable",
      "type": "function"
    },
    {
      "inputs": [],
      "name": "renounceOwnership",
      "outputs": [],
      "stateMutability": "nonpayable",
      "type": "function"
    },
    {
      "inputs": [
        {
          "internalType": "address",
          "name": "partner",
          "type": "address"
        },
        {
          "internalType": "bool",
          "name": "status",
          "type": "bool"
        }
      ],
      "name": "setApprovedPartner",
      "outputs": [],
      "stateMutability": "nonpayable",
      "type": "function"
    },
    {
      "inputs": [
        {
          "internalType": "address",
          "name": "",
          "type": "address"
        }
      ],
      "name": "stores",
      "outputs": [
        {
          "internalType": "string",
          "name": "name",
          "type": "string"
        },
        {
          "internalType": "bool",
          "name": "isActive",
          "type": "bool"
        },
        {
          "internalType": "uint256",
          "name": "pointsRate",
          "type": "uint256"
        }
      ],
      "stateMutability": "view",
      "type": "function"
    },
    {
      "inputs": [],
      "name": "symbol",
      "outputs": [
        {
          "internalType": "string",
          "name": "",
          "type": "string"
        }
      ],
      "stateMutability": "view",
      "type": "function"
    },
    {
      "inputs": [],
      "name": "totalSupply",
      "outputs": [
        {
          "internalType": "uint256",
          "name": "",
          "type": "uint256"
        }
      ],
      "stateMutability": "view",
      "type": "function"
    },
    {
      "inputs": [
        {
          "internalType": "address",
          "name": "to",
          "type": "address"
        },
        {
          "internalType": "uint256",
          "name": "value",
          "type": "uint256"
        }
      ],
      "name": "transfer",
      "outputs": [
        {
          "internalType": "bool",
          "name": "",
          "type": "bool"
        }
      ],
      "stateMutability": "nonpayable",
      "type": "function"
    },
    {
      "inputs": [
        {
          "internalType": "address",
          "name": "from",
          "type": "address"
        },
        {
          "internalType": "address",
          "name": "to",
          "type": "address"
        },
        {
          "internalType": "uint256",
          "name": "value",
          "type": "uint256"
        }
      ],
      "name": "transferFrom",
      "outputs": [
        {
          "internalType": "bool",
          "name": "",
          "type": "bool"
        }
      ],
      "stateMutability": "nonpayable",
      "type": "function"
    },
    {
      "inputs": [
        {
          "internalType": "address",
          "name": "newOwner",
          "type": "address"
        }
      ],
      "name": "transferOwnership",
      "outputs": [],
      "stateMutability": "nonpayable",
      "type": "function"
    },
    {
      "inputs": [
        {
          "internalType": "uint256",
          "name": "newExpirationPeriod",
          "type": "uint256"
        }
      ],
      "name": "updateExpirationPeriod",
      "outputs": [],
      "stateMutability": "nonpayable",
      "type": "function"
    },
    {
      "inputs": [
        {
          "internalType": "uint256",
          "name": "newMaxRedeemablePoints",
          "type": "uint256"
        }
      ],
      "name": "updateMaxRedeemablePoints",
      "outputs": [],
      "stateMutability": "nonpayable",
      "type": "function"
    },
    {
      "inputs": [
        {
          "internalType": "uint256",
          "name": "newPointsToEthRate",
          "type": "uint256"
        }
      ],
      "name": "updatePointsToEthRate",
      "outputs": [],
      "stateMutability": "nonpayable",
      "type": "function"
    }
  ],
  "bytecode": "0x608060405234801561001057600080fd5b50604051614460380380614460833981810160405281019061003291906106bd565b85858581600390816100449190610999565b5080600490816100549190610999565b505050600073ffffffffffffffffffffffffffffffffffffffff168173ffffffffffffffffffffffffffffffffffffffff16036100c95760006040517f1e4fbdf70000000000000000000000000000000000000000000000000000000081526004016100c09190610a7a565b60405180910390fd5b6100d88161013860201b60201c565b5060016006819055508260088190555081600c8190555080600d8190555061012d866101086101fe60201b60201c565b600a6101149190610c04565b620f42406101229190610c4f565b61020760201b60201c565b505050505050610d26565b6000600560009054906101000a900473ffffffffffffffffffffffffffffffffffffffff16905081600560006101000a81548173ffffffffffffffffffffffffffffffffffffffff021916908373ffffffffffffffffffffffffffffffffffffffff1602179055508173ffffffffffffffffffffffffffffffffffffffff168173ffffffffffffffffffffffffffffffffffffffff167f8be0079c531659141344cd1fd0a4f28419497f9722a3daafe3b4186f6b6457e060405160405180910390a35050565b60006012905090565b600073ffffffffffffffffffffffffffffffffffffffff168273ffffffffffffffffffffffffffffffffffffffff16036102795760006040517fec442f050000000000000000000000000000000000000000000000000000000081526004016102709190610a7a565b60405180910390fd5b61028b6000838361028f60201b60201c565b5050565b600073ffffffffffffffffffffffffffffffffffffffff168373ffffffffffffffffffffffffffffffffffffffff16036102e15780600260008282546102d59190610c91565b925050819055506103b4565b60008060008573ffffffffffffffffffffffffffffffffffffffff1673ffffffffffffffffffffffffffffffffffffffff1681526020019081526020016000205490508181101561036d578381836040517fe450d38c00000000000000000000000000000000000000000000000000000000815260040161036493929190610cd4565b60405180910390fd5b8181036000808673ffffffffffffffffffffffffffffffffffffffff1673ffffffffffffffffffffffffffffffffffffffff16815260200190815260200160002081905550505b600073ffffffffffffffffffffffffffffffffffffffff168273ffffffffffffffffffffffffffffffffffffffff16036103fd578060026000828254039250508190555061044a565b806000808473ffffffffffffffffffffffffffffffffffffffff1673ffffffffffffffffffffffffffffffffffffffff168152602001908152602001600020600082825401925050819055505b8173ffffffffffffffffffffffffffffffffffffffff168373ffffffffffffffffffffffffffffffffffffffff167fddf252ad1be2c89b69c2b068fc378daa952ba7f163c4a11628f55a4df523b3ef836040516104a79190610d0b565b60405180910390a3505050565b6000604051905090565b600080fd5b600080fd5b600073ffffffffffffffffffffffffffffffffffffffff82169050919050565b60006104f3826104c8565b9050919050565b610503816104e8565b811461050e57600080fd5b50565b600081519050610520816104fa565b92915050565b600080fd5b600080fd5b6000601f19601f8301169050919050565b7f4e487b7100000000000000000000000000000000000000000000000000000000600052604160045260246000fd5b61057982610530565b810181811067ffffffffffffffff8211171561059857610597610541565b5b80604052505050565b60006105ab6104b4565b90506105b78282610570565b919050565b600067ffffffffffffffff8211156105d7576105d6610541565b5b6105e082610530565b9050602081019050919050565b60005b8381101561060b5780820151818401526020810190506105f0565b60008484015250505050565b600061062a610625846105bc565b6105a1565b9050828152602081018484840111156106465761064561052b565b5b6106518482856105ed565b509392505050565b600082601f83011261066e5761066d610526565b5b815161067e848260208601610617565b91505092915050565b6000819050919050565b61069a81610687565b81146106a557600080fd5b50565b6000815190506106b781610691565b92915050565b60008060008060008060c087890312156106da576106d96104be565b5b60006106e889828a01610511565b965050602087015167ffffffffffffffff811115610709576107086104c3565b5b61071589828a01610659565b955050604087015167ffffffffffffffff811115610736576107356104c3565b5b61074289828a01610659565b945050606061075389828a016106a8565b935050608061076489828a016106a8565b92505060a061077589828a016106a8565b9150509295509295509295565b600081519050919050565b7f4e487b7100000000000000000000000000000000000000000000000000000000600052602260045260246000fd5b600060028204905060018216806107d457607f821691505b6020821081036107e7576107e661078d565b5b50919050565b60008190508160005260206000209050919050565b60006020601f8301049050919050565b600082821b905092915050565b60006008830261084f7fffffffffffffffffffffffffffffffffffffffffffffffffffffffffffffffff82610812565b6108598683610812565b95508019841693508086168417925050509392505050565b6000819050919050565b600061089661089161088c84610687565b610871565b610687565b9050919050565b6000819050919050565b6108b08361087b565b6108c46108bc8261089d565b84845461081f565b825550505050565b600090565b6108d96108cc565b6108e48184846108a7565b505050565b5b81811015610908576108fd6000826108d1565b6001810190506108ea565b5050565b601f82111561094d5761091e816107ed565b61092784610802565b81016020851015610936578190505b61094a61094285610802565b8301826108e9565b50505b505050565b600082821c905092915050565b600061097060001984600802610952565b1980831691505092915050565b6000610989838361095f565b9150826002028217905092915050565b6109a282610782565b67ffffffffffffffff8111156109bb576109ba610541565b5b6109c582546107bc565b6109d082828561090c565b600060209050601f831160018114610a0357600084156109f1578287015190505b6109fb858261097d565b865550610a63565b601f198416610a11866107ed565b60005b82811015610a3957848901518255600182019150602085019450602081019050610a14565b86831015610a565784890151610a52601f89168261095f565b8355505b6001600288020188555050505b505050505050565b610a74816104e8565b82525050565b6000602082019050610a8f6000830184610a6b565b92915050565b7f4e487b7100000000000000000000000000000000000000000000000000000000600052601160045260246000fd5b60008160011c9050919050565b6000808291508390505b6001851115610b1b57808604811115610af757610af6610a95565b5b6001851615610b065780820291505b8081029050610b1485610ac4565b9450610adb565b94509492505050565b600082610b345760019050610bf0565b81610b425760009050610bf0565b8160018114610b585760028114610b6257610b91565b6001915050610bf0565b60ff841115610b7457610b73610a95565b5b8360020a915084821115610b8b57610b8a610a95565b5b50610bf0565b5060208310610133831016604e8410600b8410161715610bc65782820a905083811115610bc157610bc0610a95565b5b610bf0565b610bd38484846001610ad1565b92509050818404811115610bea57610be9610a95565b5b81810290505b9392505050565b600060ff82169050919050565b6000610c0f82610687565b9150610c1a83610bf7565b9250610c477fffffffffffffffffffffffffffffffffffffffffffffffffffffffffffffffff8484610b24565b905092915050565b6000610c5a82610687565b9150610c6583610687565b9250828202610c7381610687565b91508282048414831517610c8a57610c89610a95565b5b5092915050565b6000610c9c82610687565b9150610ca783610687565b9250828201905080821115610cbf57610cbe610a95565b5b92915050565b610cce81610687565b82525050565b6000606082019050610ce96000830186610a6b565b610cf66020830185610cc5565b610d036040830184610cc5565b949350505050565b6000602082019050610d206000830184610cc5565b92915050565b61372b80610d356000396000f3fe608060405234801561001057600080fd5b50600436106101f05760003560e01c80638da5cb5b1161010f578063c18e6e5e116100a2578063dd62ed3e11610071578063dd62ed3e146105b9578063e707f36f146105e9578063f17acdd414610619578063f2fde38b14610635576101f0565b8063c18e6e5e14610535578063c18fd09e14610565578063d5c1a93714610581578063da20569e1461059d576101f0565b8063a9059cbb116100de578063a9059cbb14610489578063b85da8d2146104b9578063b9add413146104d5578063ba2eb54114610505576101f0565b80638da5cb5b146104155780638dbe1a1714610433578063958799cb1461044f57806395d89b411461046b576101f0565b8063364e0d361161018757806370a082311161015657806370a082311461039f578063715018a6146103cf5780638897cad3146103d95780638a9c46a8146103f7576101f0565b8063364e0d36146103035780634912e7c0146103215780635791676b1461033d578063621df5341461036d576101f0565b806318160ddd116101c357806318160ddd1461027b57806323b872dd1461029957806327d6595b146102c9578063313ce567146102e5576101f0565b806306fdde03146101f557806308c8995e14610213578063095ea7b31461022f578063126aa30d1461025f575b600080fd5b6101fd610651565b60405161020a9190612639565b60405180910390f35b61022d60048036038101906102289190612705565b6106e3565b005b6102496004803603810190610244919061277b565b6107b5565b60405161025691906127ca565b60405180910390f35b610279600480360381019061027491906127e5565b6107d8565b005b6102836107ea565b6040516102909190612821565b60405180910390f35b6102b360048036038101906102ae919061283c565b6107f4565b6040516102c091906127ca565b60405180910390f35b6102e360048036038101906102de91906127e5565b610823565b005b6102ed610835565b6040516102fa91906128ab565b60405180910390f35b61030b61083e565b6040516103189190612821565b60405180910390f35b61033b600480360381019061033691906129fb565b610844565b005b61035760048036038101906103529190612a6a565b610a8d565b60405161036491906127ca565b60405180910390f35b61038760048036038101906103829190612a6a565b610aad565b60405161039693929190612a97565b60405180910390f35b6103b960048036038101906103b49190612a6a565b610b6c565b6040516103c69190612821565b60405180910390f35b6103d7610bb4565b005b6103e1610bc8565b6040516103ee9190612821565b60405180910390f35b6103ff610bce565b60405161040c9190612821565b60405180910390f35b61041d610bd4565b60405161042a9190612ae4565b60405180910390f35b61044d60048036038101906104489190612a6a565b610bfe565b005b6104696004803603810190610464919061277b565b610d8e565b005b6104736110ab565b6040516104809190612639565b60405180910390f35b6104a3600480360381019061049e919061277b565b61113d565b6040516104b091906127ca565b60405180910390f35b6104d360048036038101906104ce919061277b565b611160565b005b6104ef60048036038101906104ea91906127e5565b6113f0565b6040516104fc9190612821565b60405180910390f35b61051f600480360381019061051a9190612a6a565b61141a565b60405161052c91906127ca565b60405180910390f35b61054f600480360381019061054a9190612a6a565b6114cf565b60405161055c91906127ca565b60405180910390f35b61057f600480360381019061057a9190612aff565b6114ef565b005b61059b60048036038101906105969190612a6a565b6117f6565b005b6105b760048036038101906105b2919061277b565b611a05565b005b6105d360048036038101906105ce9190612b52565b611bbb565b6040516105e09190612821565b60405180910390f35b61060360048036038101906105fe9190612a6a565b611c42565b6040516106109190612821565b60405180910390f35b610633600480360381019061062e91906127e5565b611c8e565b005b61064f600480360381019061064a9190612a6a565b611ce3565b005b60606003805461066090612bc1565b80601f016020809104026020016040519081016040528092919081815260200182805461068c90612bc1565b80156106d95780601f106106ae576101008083540402835291602001916106d9565b820191906000526020600020905b8154815290600101906020018083116106bc57829003601f168201915b5050505050905090565b6106eb611d69565b600073ffffffffffffffffffffffffffffffffffffffff168273ffffffffffffffffffffffffffffffffffffffff160361075a576040517f08c379a000000000000000000000000000000000000000000000000000000000815260040161075190612c3e565b60405180910390fd5b80600960008473ffffffffffffffffffffffffffffffffffffffff1673ffffffffffffffffffffffffffffffffffffffff16815260200190815260200160002060006101000a81548160ff0219169083151502179055505050565b6000806107c0611df0565b90506107cd818585611df8565b600191505092915050565b6107e0611d69565b8060088190555050565b6000600254905090565b6000806107ff611df0565b905061080c858285611e0a565b610817858585611e9f565b60019150509392505050565b61082b611d69565b80600c8190555050565b60006012905090565b600d5481565b61084c611d69565b600073ffffffffffffffffffffffffffffffffffffffff168373ffffffffffffffffffffffffffffffffffffffff16036108bb576040517f08c379a00000000000000000000000000000000000000000000000000000000081526004016108b290612caa565b60405180910390fd5b60008251116108ff576040517f08c379a00000000000000000000000000000000000000000000000000000000081526004016108f690612d16565b60405180910390fd5b60008111610942576040517f08c379a000000000000000000000000000000000000000000000000000000000815260040161093990612da8565b60405180910390fd5b604051806060016040528083815260200160011515815260200182815250600b60008573ffffffffffffffffffffffffffffffffffffffff1673ffffffffffffffffffffffffffffffffffffffff16815260200190815260200160002060008201518160000190816109b49190612f74565b5060208201518160010160006101000a81548160ff021916908315150217905550604082015181600201559050506001600a60008573ffffffffffffffffffffffffffffffffffffffff1673ffffffffffffffffffffffffffffffffffffffff16815260200190815260200160002060006101000a81548160ff0219169083151502179055508273ffffffffffffffffffffffffffffffffffffffff167fb20a4cd2d15a8810759f14fb68552da366216e3740709fb931a92ac845af4c6083604051610a809190612639565b60405180910390a2505050565b60096020528060005260406000206000915054906101000a900460ff1681565b600b602052806000526040600020600091509050806000018054610ad090612bc1565b80601f0160208091040260200160405190810160405280929190818152602001828054610afc90612bc1565b8015610b495780601f10610b1e57610100808354040283529160200191610b49565b820191906000526020600020905b815481529060010190602001808311610b2c57829003601f168201915b5050505050908060010160009054906101000a900460ff16908060020154905083565b60008060008373ffffffffffffffffffffffffffffffffffffffff1673ffffffffffffffffffffffffffffffffffffffff168152602001908152602001600020549050919050565b610bbc611d69565b610bc66000611f93565b565b60085481565b600c5481565b6000600560009054906101000a900473ffffffffffffffffffffffffffffffffffffffff16905090565b610c06611d69565b600b60008273ffffffffffffffffffffffffffffffffffffffff1673ffffffffffffffffffffffffffffffffffffffff16815260200190815260200160002060010160009054906101000a900460ff16610c95576040517f08c379a0000000000000000000000000000000000000000000000000000000008152600401610c8c906130b8565b60405180910390fd5b6000600b60008373ffffffffffffffffffffffffffffffffffffffff1673ffffffffffffffffffffffffffffffffffffffff16815260200190815260200160002060010160006101000a81548160ff0219169083151502179055506000600a60008373ffffffffffffffffffffffffffffffffffffffff1673ffffffffffffffffffffffffffffffffffffffff16815260200190815260200160002060006101000a81548160ff0219169083151502179055508073ffffffffffffffffffffffffffffffffffffffff167f8a3674246878227c5067d2b007a4bacdcade1cc2e8528c08c068d1987e99119c60405160405180910390a250565b610d96612059565b600a60003373ffffffffffffffffffffffffffffffffffffffff1673ffffffffffffffffffffffffffffffffffffffff16815260200190815260200160002060009054906101000a900460ff16610e22576040517f08c379a0000000000000000000000000000000000000000000000000000000008152600401610e199061314a565b60405180910390fd5b600073ffffffffffffffffffffffffffffffffffffffff168273ffffffffffffffffffffffffffffffffffffffff1603610e91576040517f08c379a0000000000000000000000000000000000000000000000000000000008152600401610e88906131b6565b60405180910390fd5b60008111610ed4576040517f08c379a0000000000000000000000000000000000000000000000000000000008152600401610ecb90613248565b60405180910390fd5b6000600b60003373ffffffffffffffffffffffffffffffffffffffff1673ffffffffffffffffffffffffffffffffffffffff16815260200190815260200160002090506000670de0b6b3a7640000826002015484610f329190613297565b610f3c9190613308565b9050610f48848261209f565b80600760008673ffffffffffffffffffffffffffffffffffffffff1673ffffffffffffffffffffffffffffffffffffffff1681526020019081526020016000206000016000828254610f9a9190613339565b9250508190555042600760008673ffffffffffffffffffffffffffffffffffffffff1673ffffffffffffffffffffffffffffffffffffffff168152602001908152602001600020600101819055508373ffffffffffffffffffffffffffffffffffffffff167f5522eea310695242e9a97820729914e053a3ea3ab980666463a3e6b7f4d080f18260405161102e9190612821565b60405180910390a23373ffffffffffffffffffffffffffffffffffffffff168473ffffffffffffffffffffffffffffffffffffffff167f6964a43f52a0a106ad9b05cef2dcf857c326b3757a03ace5a4a90e28c4ac3a01858460405161109592919061336d565b60405180910390a350506110a7612121565b5050565b6060600480546110ba90612bc1565b80601f01602080910402602001604051908101604052809291908181526020018280546110e690612bc1565b80156111335780601f1061110857610100808354040283529160200191611133565b820191906000526020600020905b81548152906001019060200180831161111657829003601f168201915b5050505050905090565b600080611148611df0565b9050611155818585611e9f565b600191505092915050565b611168612059565b611170611d69565b600073ffffffffffffffffffffffffffffffffffffffff168273ffffffffffffffffffffffffffffffffffffffff16036111df576040517f08c379a00000000000000000000000000000000000000000000000000000000081526004016111d6906133e2565b60405180910390fd5b60008111611222576040517f08c379a00000000000000000000000000000000000000000000000000000000081526004016112199061344e565b60405180910390fd5b80600760008473ffffffffffffffffffffffffffffffffffffffff1673ffffffffffffffffffffffffffffffffffffffff1681526020019081526020016000206000015410156112a7576040517f08c379a000000000000000000000000000000000000000000000000000000000815260040161129e906134ba565b60405180910390fd5b600c548111156112ec576040517f08c379a00000000000000000000000000000000000000000000000000000000081526004016112e390613526565b60405180910390fd5b6112f6828261212b565b80600760008473ffffffffffffffffffffffffffffffffffffffff1673ffffffffffffffffffffffffffffffffffffffff16815260200190815260200160002060000160008282546113489190613546565b9250508190555042600760008473ffffffffffffffffffffffffffffffffffffffff1673ffffffffffffffffffffffffffffffffffffffff168152602001908152602001600020600101819055508173ffffffffffffffffffffffffffffffffffffffff167fc37df5d14f305277c1289e9a188a097cda6684189c95f785feb056cb77a8c910826040516113dc9190612821565b60405180910390a26113ec612121565b5050565b6000600d54670de0b6b3a7640000836114099190613297565b6114139190613308565b9050919050565b600080600760008473ffffffffffffffffffffffffffffffffffffffff1673ffffffffffffffffffffffffffffffffffffffff168152602001908152602001600020600001540361146e57600090506114ca565b6000600760008473ffffffffffffffffffffffffffffffffffffffff1673ffffffffffffffffffffffffffffffffffffffff16815260200190815260200160002060010154426114be9190613546565b90506008548110159150505b919050565b600a6020528060005260406000206000915054906101000a900460ff1681565b6114f7612059565b600960008273ffffffffffffffffffffffffffffffffffffffff1673ffffffffffffffffffffffffffffffffffffffff16815260200190815260200160002060009054906101000a900460ff16611583576040517f08c379a000000000000000000000000000000000000000000000000000000000815260040161157a906135c6565b60405180910390fd5b81600760008573ffffffffffffffffffffffffffffffffffffffff1673ffffffffffffffffffffffffffffffffffffffff168152602001908152602001600020600001541015611608576040517f08c379a00000000000000000000000000000000000000000000000000000000081526004016115ff906134ba565b60405180910390fd5b600c5482111561164d576040517f08c379a000000000000000000000000000000000000000000000000000000000815260040161164490613526565b60405180910390fd5b8273ffffffffffffffffffffffffffffffffffffffff163373ffffffffffffffffffffffffffffffffffffffff1614806116b257508073ffffffffffffffffffffffffffffffffffffffff163373ffffffffffffffffffffffffffffffffffffffff16145b6116f1576040517f08c379a00000000000000000000000000000000000000000000000000000000081526004016116e890613632565b60405180910390fd5b6116fb838361212b565b81600760008573ffffffffffffffffffffffffffffffffffffffff1673ffffffffffffffffffffffffffffffffffffffff168152602001908152602001600020600001600082825461174d9190613546565b9250508190555042600760008573ffffffffffffffffffffffffffffffffffffffff1673ffffffffffffffffffffffffffffffffffffffff168152602001908152602001600020600101819055508273ffffffffffffffffffffffffffffffffffffffff167fc37df5d14f305277c1289e9a188a097cda6684189c95f785feb056cb77a8c910836040516117e19190612821565b60405180910390a26117f1612121565b505050565b6117fe611d69565b600073ffffffffffffffffffffffffffffffffffffffff168173ffffffffffffffffffffffffffffffffffffffff160361186d576040517f08c379a0000000000000000000000000000000000000000000000000000000008152600401611864906133e2565b60405180910390fd5b6000600760008373ffffffffffffffffffffffffffffffffffffffff1673ffffffffffffffffffffffffffffffffffffffff16815260200190815260200160002060010154426118bd9190613546565b9050600854811015801561191357506000600760008473ffffffffffffffffffffffffffffffffffffffff1673ffffffffffffffffffffffffffffffffffffffff16815260200190815260200160002060000154115b15611a01576000600760008473ffffffffffffffffffffffffffffffffffffffff1673ffffffffffffffffffffffffffffffffffffffff168152602001908152602001600020600001549050611969838261212b565b6000600760008573ffffffffffffffffffffffffffffffffffffffff1673ffffffffffffffffffffffffffffffffffffffff168152602001908152602001600020600001819055508273ffffffffffffffffffffffffffffffffffffffff167fc623d81357a1cbb93768557b876d60b7e1fc2d971974e631c7c1c9bbff0a0aab826040516119f79190612821565b60405180910390a2505b5050565b611a0d611d69565b600073ffffffffffffffffffffffffffffffffffffffff168273ffffffffffffffffffffffffffffffffffffffff1603611a7c576040517f08c379a0000000000000000000000000000000000000000000000000000000008152600401611a73906133e2565b60405180910390fd5b60008111611abf576040517f08c379a0000000000000000000000000000000000000000000000000000000008152600401611ab69061344e565b60405180910390fd5b611ac9828261209f565b80600760008473ffffffffffffffffffffffffffffffffffffffff1673ffffffffffffffffffffffffffffffffffffffff1681526020019081526020016000206000016000828254611b1b9190613339565b9250508190555042600760008473ffffffffffffffffffffffffffffffffffffffff1673ffffffffffffffffffffffffffffffffffffffff168152602001908152602001600020600101819055508173ffffffffffffffffffffffffffffffffffffffff167f5522eea310695242e9a97820729914e053a3ea3ab980666463a3e6b7f4d080f182604051611baf9190612821565b60405180910390a25050565b6000600160008473ffffffffffffffffffffffffffffffffffffffff1673ffffffffffffffffffffffffffffffffffffffff16815260200190815260200160002060008373ffffffffffffffffffffffffffffffffffffffff1673ffffffffffffffffffffffffffffffffffffffff16815260200190815260200160002054905092915050565b6000600760008373ffffffffffffffffffffffffffffffffffffffff1673ffffffffffffffffffffffffffffffffffffffff168152602001908152602001600020600001549050919050565b611c96611d69565b60008111611cd9576040517f08c379a0000000000000000000000000000000000000000000000000000000008152600401611cd09061369e565b60405180910390fd5b80600d8190555050565b611ceb611d69565b600073ffffffffffffffffffffffffffffffffffffffff168173ffffffffffffffffffffffffffffffffffffffff1603611d5d5760006040517f1e4fbdf7000000000000000000000000000000000000000000000000000000008152600401611d549190612ae4565b60405180910390fd5b611d6681611f93565b50565b611d71611df0565b73ffffffffffffffffffffffffffffffffffffffff16611d8f610bd4565b73ffffffffffffffffffffffffffffffffffffffff1614611dee57611db2611df0565b6040517f118cdaa7000000000000000000000000000000000000000000000000000000008152600401611de59190612ae4565b60405180910390fd5b565b600033905090565b611e0583838360016121ad565b505050565b6000611e168484611bbb565b90507fffffffffffffffffffffffffffffffffffffffffffffffffffffffffffffffff811015611e995781811015611e89578281836040517ffb8f41b2000000000000000000000000000000000000000000000000000000008152600401611e80939291906136be565b60405180910390fd5b611e98848484840360006121ad565b5b50505050565b600073ffffffffffffffffffffffffffffffffffffffff168373ffffffffffffffffffffffffffffffffffffffff1603611f115760006040517f96c6fd1e000000000000000000000000000000000000000000000000000000008152600401611f089190612ae4565b60405180910390fd5b600073ffffffffffffffffffffffffffffffffffffffff168273ffffffffffffffffffffffffffffffffffffffff1603611f835760006040517fec442f05000000000000000000000000000000000000000000000000000000008152600401611f7a9190612ae4565b60405180910390fd5b611f8e838383612384565b505050565b6000600560009054906101000a900473ffffffffffffffffffffffffffffffffffffffff16905081600560006101000a81548173ffffffffffffffffffffffffffffffffffffffff021916908373ffffffffffffffffffffffffffffffffffffffff1602179055508173ffffffffffffffffffffffffffffffffffffffff168173ffffffffffffffffffffffffffffffffffffffff167f8be0079c531659141344cd1fd0a4f28419497f9722a3daafe3b4186f6b6457e060405160405180910390a35050565b600260065403612095576040517f3ee5aeb500000000000000000000000000000000000000000000000000000000815260040160405180910390fd5b6002600681905550565b600073ffffffffffffffffffffffffffffffffffffffff168273ffffffffffffffffffffffffffffffffffffffff16036121115760006040517fec442f050000000000000000000000000000000000000000000000000000000081526004016121089190612ae4565b60405180910390fd5b61211d60008383612384565b5050565b6001600681905550565b600073ffffffffffffffffffffffffffffffffffffffff168273ffffffffffffffffffffffffffffffffffffffff160361219d5760006040517f96c6fd1e0000000000000000000000000000000000000000000000000000000081526004016121949190612ae4565b60405180910390fd5b6121a982600083612384565b5050565b600073ffffffffffffffffffffffffffffffffffffffff168473ffffffffffffffffffffffffffffffffffffffff160361221f5760006040517fe602df050000000000000000000000000000000000000000000000000000000081526004016122169190612ae4565b60405180910390fd5b600073ffffffffffffffffffffffffffffffffffffffff168373ffffffffffffffffffffffffffffffffffffffff16036122915760006040517f94280d620000000000000000000000000000000000000000000000000000000081526004016122889190612ae4565b60405180910390fd5b81600160008673ffffffffffffffffffffffffffffffffffffffff1673ffffffffffffffffffffffffffffffffffffffff16815260200190815260200160002060008573ffffffffffffffffffffffffffffffffffffffff1673ffffffffffffffffffffffffffffffffffffffff16815260200190815260200160002081905550801561237e578273ffffffffffffffffffffffffffffffffffffffff168473ffffffffffffffffffffffffffffffffffffffff167f8c5be1e5ebec7d5bd14f71427d1e84f3dd0314c0f7b2291e5b200ac8c7c3b925846040516123759190612821565b60405180910390a35b50505050565b600073ffffffffffffffffffffffffffffffffffffffff168373ffffffffffffffffffffffffffffffffffffffff16036123d65780600260008282546123ca9190613339565b925050819055506124a9565b60008060008573ffffffffffffffffffffffffffffffffffffffff1673ffffffffffffffffffffffffffffffffffffffff16815260200190815260200160002054905081811015612462578381836040517fe450d38c000000000000000000000000000000000000000000000000000000008152600401612459939291906136be565b60405180910390fd5b8181036000808673ffffffffffffffffffffffffffffffffffffffff1673ffffffffffffffffffffffffffffffffffffffff16815260200190815260200160002081905550505b600073ffffffffffffffffffffffffffffffffffffffff168273ffffffffffffffffffffffffffffffffffffffff16036124f2578060026000828254039250508190555061253f565b806000808473ffffffffffffffffffffffffffffffffffffffff1673ffffffffffffffffffffffffffffffffffffffff168152602001908152602001600020600082825401925050819055505b8173ffffffffffffffffffffffffffffffffffffffff168373ffffffffffffffffffffffffffffffffffffffff167fddf252ad1be2c89b69c2b068fc378daa952ba7f163c4a11628f55a4df523b3ef8360405161259c9190612821565b60405180910390a3505050565b600081519050919050565b600082825260208201905092915050565b60005b838110156125e35780820151818401526020810190506125c8565b60008484015250505050565b6000601f19601f8301169050919050565b600061260b826125a9565b61261581856125b4565b93506126258185602086016125c5565b61262e816125ef565b840191505092915050565b600060208201905081810360008301526126538184612600565b905092915050565b6000604051905090565b600080fd5b600080fd5b600073ffffffffffffffffffffffffffffffffffffffff82169050919050565b600061269a8261266f565b9050919050565b6126aa8161268f565b81146126b557600080fd5b50565b6000813590506126c7816126a1565b92915050565b60008115159050919050565b6126e2816126cd565b81146126ed57600080fd5b50565b6000813590506126ff816126d9565b92915050565b6000806040838503121561271c5761271b612665565b5b600061272a858286016126b8565b925050602061273b858286016126f0565b9150509250929050565b6000819050919050565b61275881612745565b811461276357600080fd5b50565b6000813590506127758161274f565b92915050565b6000806040838503121561279257612791612665565b5b60006127a0858286016126b8565b92505060206127b185828601612766565b9150509250929050565b6127c4816126cd565b82525050565b60006020820190506127df60008301846127bb565b92915050565b6000602082840312156127fb576127fa612665565b5b600061280984828501612766565b91505092915050565b61281b81612745565b82525050565b60006020820190506128366000830184612812565b92915050565b60008060006060848603121561285557612854612665565b5b6000612863868287016126b8565b9350506020612874868287016126b8565b925050604061288586828701612766565b9150509250925092565b600060ff82169050919050565b6128a58161288f565b82525050565b60006020820190506128c0600083018461289c565b92915050565b600080fd5b600080fd5b7f4e487b7100000000000000000000000000000000000000000000000000000000600052604160045260246000fd5b612908826125ef565b810181811067ffffffffffffffff82111715612927576129266128d0565b5b80604052505050565b600061293a61265b565b905061294682826128ff565b919050565b600067ffffffffffffffff821115612966576129656128d0565b5b61296f826125ef565b9050602081019050919050565b82818337600083830152505050565b600061299e6129998461294b565b612930565b9050828152602081018484840111156129ba576129b96128cb565b5b6129c584828561297c565b509392505050565b600082601f8301126129e2576129e16128c6565b5b81356129f284826020860161298b565b91505092915050565b600080600060608486031215612a1457612a13612665565b5b6000612a22868287016126b8565b935050602084013567ffffffffffffffff811115612a4357612a4261266a565b5b612a4f868287016129cd565b9250506040612a6086828701612766565b9150509250925092565b600060208284031215612a8057612a7f612665565b5b6000612a8e848285016126b8565b91505092915050565b60006060820190508181036000830152612ab18186612600565b9050612ac060208301856127bb565b612acd6040830184612812565b949350505050565b612ade8161268f565b82525050565b6000602082019050612af96000830184612ad5565b92915050565b600080600060608486031215612b1857612b17612665565b5b6000612b26868287016126b8565b9350506020612b3786828701612766565b9250506040612b48868287016126b8565b9150509250925092565b60008060408385031215612b6957612b68612665565b5b6000612b77858286016126b8565b9250506020612b88858286016126b8565b9150509250929050565b7f4e487b7100000000000000000000000000000000000000000000000000000000600052602260045260246000fd5b60006002820490506001821680612bd957607f821691505b602082108103612bec57612beb612b92565b5b50919050565b7f496e76616c696420706172746e65722061646472657373000000000000000000600082015250565b6000612c286017836125b4565b9150612c3382612bf2565b602082019050919050565b60006020820190508181036000830152612c5781612c1b565b9050919050565b7f496e76616c69642073746f726520616464726573730000000000000000000000600082015250565b6000612c946015836125b4565b9150612c9f82612c5e565b602082019050919050565b60006020820190508181036000830152612cc381612c87565b9050919050565b7f53746f7265206e616d652063616e6e6f7420626520656d707479000000000000600082015250565b6000612d00601a836125b4565b9150612d0b82612cca565b602082019050919050565b60006020820190508181036000830152612d2f81612cf3565b9050919050565b7f506f696e74732072617465206d7573742062652067726561746572207468616e60008201527f207a65726f000000000000000000000000000000000000000000000000000000602082015250565b6000612d926025836125b4565b9150612d9d82612d36565b604082019050919050565b60006020820190508181036000830152612dc181612d85565b9050919050565b60008190508160005260206000209050919050565b60006020601f8301049050919050565b600082821b905092915050565b600060088302612e2a7fffffffffffffffffffffffffffffffffffffffffffffffffffffffffffffffff82612ded565b612e348683612ded565b95508019841693508086168417925050509392505050565b6000819050919050565b6000612e71612e6c612e6784612745565b612e4c565b612745565b9050919050565b6000819050919050565b612e8b83612e56565b612e9f612e9782612e78565b848454612dfa565b825550505050565b600090565b612eb4612ea7565b612ebf818484612e82565b505050565b5b81811015612ee357612ed8600082612eac565b600181019050612ec5565b5050565b601f821115612f2857612ef981612dc8565b612f0284612ddd565b81016020851015612f11578190505b612f25612f1d85612ddd565b830182612ec4565b50505b505050565b600082821c905092915050565b6000612f4b60001984600802612f2d565b1980831691505092915050565b6000612f648383612f3a565b9150826002028217905092915050565b612f7d826125a9565b67ffffffffffffffff811115612f9657612f956128d0565b5b612fa08254612bc1565b612fab828285612ee7565b600060209050601f831160018114612fde5760008415612fcc578287015190505b612fd68582612f58565b86555061303e565b601f198416612fec86612dc8565b60005b8281101561301457848901518255600182019150602085019450602081019050612fef565b86831015613031578489015161302d601f891682612f3a565b8355505b6001600288020188555050505b505050505050565b7f53746f7265206e6f7420666f756e64206f7220616c726561647920696e61637460008201527f6976650000000000000000000000000000000000000000000000000000000000602082015250565b60006130a26023836125b4565b91506130ad82613046565b604082019050919050565b600060208201905081810360008301526130d181613095565b9050919050565b7f4f6e6c7920617070726f7665642073746f7265732063616e207265636f72642060008201527f7075726368617365730000000000000000000000000000000000000000000000602082015250565b60006131346029836125b4565b915061313f826130d8565b604082019050919050565b6000602082019050818103600083015261316381613127565b9050919050565b7f496e76616c696420637573746f6d657220616464726573730000000000000000600082015250565b60006131a06018836125b4565b91506131ab8261316a565b602082019050919050565b600060208201905081810360008301526131cf81613193565b9050919050565b7f507572636861736520616d6f756e74206d75737420626520677265617465722060008201527f7468616e207a65726f0000000000000000000000000000000000000000000000602082015250565b60006132326029836125b4565b915061323d826131d6565b604082019050919050565b6000602082019050818103600083015261326181613225565b9050919050565b7f4e487b7100000000000000000000000000000000000000000000000000000000600052601160045260246000fd5b60006132a282612745565b91506132ad83612745565b92508282026132bb81612745565b915082820484148315176132d2576132d1613268565b5b5092915050565b7f4e487b7100000000000000000000000000000000000000000000000000000000600052601260045260246000fd5b600061331382612745565b915061331e83612745565b92508261332e5761332d6132d9565b5b828204905092915050565b600061334482612745565b915061334f83612745565b925082820190508082111561336757613366613268565b5b92915050565b60006040820190506133826000830185612812565b61338f6020830184612812565b9392505050565b7f496e76616c696420757365722061646472657373000000000000000000000000600082015250565b60006133cc6014836125b4565b91506133d782613396565b602082019050919050565b600060208201905081810360008301526133fb816133bf565b9050919050565b7f416d6f756e74206d7573742062652067726561746572207468616e207a65726f600082015250565b60006134386020836125b4565b915061344382613402565b602082019050919050565b600060208201905081810360008301526134678161342b565b9050919050565b7f496e73756666696369656e7420706f696e747300000000000000000000000000600082015250565b60006134a46013836125b4565b91506134af8261346e565b602082019050919050565b600060208201905081810360008301526134d381613497565b9050919050565b7f45786365656473206d61782072656465656d61626c65206c696d697400000000600082015250565b6000613510601c836125b4565b915061351b826134da565b602082019050919050565b6000602082019050818103600083015261353f81613503565b9050919050565b600061355182612745565b915061355c83612745565b925082820390508181111561357457613573613268565b5b92915050565b7f506172746e6572206e6f7420617070726f766564000000000000000000000000600082015250565b60006135b06014836125b4565b91506135bb8261357a565b602082019050919050565b600060208201905081810360008301526135df816135a3565b9050919050565b7f556e617574686f72697a65640000000000000000000000000000000000000000600082015250565b600061361c600c836125b4565b9150613627826135e6565b602082019050919050565b6000602082019050818103600083015261364b8161360f565b9050919050565b7f52617465206d7573742062652067726561746572207468616e207a65726f0000600082015250565b6000613688601e836125b4565b915061369382613652565b602082019050919050565b600060208201905081810360008301526136b78161367b565b9050919050565b60006060820190506136d36000830186612ad5565b6136e06020830185612812565b6136ed6040830184612812565b94935050505056fea264697066735822122067f9133f6b9e6be9afa3ae23ea8535a835be67775d47fe7393f9cfb6512d746864736f6c634300081c0033",
  "linkReferences": {},
  "deployedLinkReferences": {}
}